{
  "contractName": "Vote",
  "abi": [
    {
      "inputs": [],
      "stateMutability": "nonpayable",
      "type": "constructor"
    },
    {
      "anonymous": false,
      "inputs": [
        {
          "indexed": false,
          "internalType": "uint256",
          "name": "id",
          "type": "uint256"
        },
        {
          "indexed": false,
          "internalType": "string",
          "name": "name",
          "type": "string"
        },
        {
          "indexed": false,
          "internalType": "uint256",
          "name": "votes",
          "type": "uint256"
        },
        {
          "indexed": false,
          "internalType": "string",
          "name": "party",
          "type": "string"
        },
        {
          "indexed": false,
          "internalType": "string",
          "name": "qualification",
          "type": "string"
        },
        {
          "indexed": false,
          "internalType": "string",
          "name": "imageurl",
          "type": "string"
        }
      ],
      "name": "electionupdate",
      "type": "event"
    },
    {
      "inputs": [
        {
          "internalType": "uint256",
          "name": "",
          "type": "uint256"
        }
      ],
      "name": "candidates",
      "outputs": [
        {
          "internalType": "uint256",
          "name": "id",
          "type": "uint256"
        },
        {
          "internalType": "string",
          "name": "name",
          "type": "string"
        },
        {
          "internalType": "uint256",
          "name": "votes",
          "type": "uint256"
        },
        {
          "internalType": "string",
          "name": "party",
          "type": "string"
        },
        {
          "internalType": "string",
          "name": "qualification",
          "type": "string"
        },
        {
          "internalType": "string",
          "name": "imageurl",
          "type": "string"
        }
      ],
      "stateMutability": "view",
      "type": "function"
    },
    {
      "inputs": [],
      "name": "candidatescount",
      "outputs": [
        {
          "internalType": "uint256",
          "name": "",
          "type": "uint256"
        }
      ],
      "stateMutability": "view",
      "type": "function"
    },
    {
      "inputs": [],
      "name": "manager",
      "outputs": [
        {
          "internalType": "address",
          "name": "",
          "type": "address"
        }
      ],
      "stateMutability": "view",
      "type": "function"
    },
    {
      "inputs": [
        {
          "internalType": "address",
          "name": "",
          "type": "address"
        }
      ],
      "name": "voted",
      "outputs": [
        {
          "internalType": "bool",
          "name": "",
          "type": "bool"
        }
      ],
      "stateMutability": "view",
      "type": "function"
    },
    {
      "inputs": [
        {
          "internalType": "uint256",
          "name": "",
          "type": "uint256"
        }
      ],
      "name": "voters",
      "outputs": [
        {
          "internalType": "address",
          "name": "vaddress",
          "type": "address"
        }
      ],
      "stateMutability": "view",
      "type": "function"
    },
    {
      "inputs": [],
      "name": "voterscount",
      "outputs": [
        {
          "internalType": "uint256",
          "name": "",
          "type": "uint256"
        }
      ],
      "stateMutability": "view",
      "type": "function"
    },
    {
      "inputs": [
        {
          "internalType": "string",
          "name": "name",
          "type": "string"
        },
        {
          "internalType": "string",
          "name": "party",
          "type": "string"
        },
        {
          "internalType": "string",
          "name": "qualification",
          "type": "string"
        },
        {
          "internalType": "string",
          "name": "imageurl",
          "type": "string"
        }
      ],
      "name": "addcandidate",
      "outputs": [],
      "stateMutability": "nonpayable",
      "type": "function"
    },
    {
      "inputs": [
        {
          "internalType": "uint256",
          "name": "_id",
          "type": "uint256"
        }
      ],
      "name": "vote",
      "outputs": [],
      "stateMutability": "nonpayable",
      "type": "function"
    }
  ],
  "bytecode": "0x608060405234801561001057600080fd5b5033600160006101000a81548173ffffffffffffffffffffffffffffffffffffffff021916908373ffffffffffffffffffffffffffffffffffffffff160217905550611010806100616000396000f3fe608060405234801561001057600080fd5b50600436106100885760003560e01c806357e0905d1161005b57806357e0905d14610118578063aec2ccae14610136578063da58c7d914610166578063fe3a4bd21461019657610088565b80630121b93f1461008d578063071d484d146100a95780633477ee2e146100c5578063481c6a75146100fa575b600080fd5b6100a760048036038101906100a29190610abd565b6101b4565b005b6100c360048036038101906100be91906109fa565b61046a565b005b6100df60048036038101906100da9190610abd565b6105b0565b6040516100f196959493929190610c7d565b60405180910390f35b61010261080c565b60405161010f9190610c0c565b60405180910390f35b610120610832565b60405161012d9190610c62565b60405180910390f35b610150600480360381019061014b91906109d1565b610838565b60405161015d9190610c27565b60405180910390f35b610180600480360381019061017b9190610abd565b610858565b60405161018d9190610c0c565b60405180910390f35b61019e610896565b6040516101ab9190610c62565b60405180910390f35b600160009054906101000a900473ffffffffffffffffffffffffffffffffffffffff1673ffffffffffffffffffffffffffffffffffffffff163373ffffffffffffffffffffffffffffffffffffffff16141561020f57600080fd5b600460003373ffffffffffffffffffffffffffffffffffffffff1673ffffffffffffffffffffffffffffffffffffffff16815260200190815260200160002060009054906101000a900460ff161561029c576040517f08c379a000000000000000000000000000000000000000000000000000000000815260040161029390610c42565b60405180910390fd5b6003600082815260200190815260200160002060020160008154809291906102c390610ec5565b91905055506001600460003373ffffffffffffffffffffffffffffffffffffffff1673ffffffffffffffffffffffffffffffffffffffff16815260200190815260200160002060006101000a81548160ff0219169083151502179055506002600081548092919061033390610ec5565b919050555060405180602001604052803373ffffffffffffffffffffffffffffffffffffffff1681525060056000600254815260200190815260200160002060008201518160000160006101000a81548173ffffffffffffffffffffffffffffffffffffffff021916908373ffffffffffffffffffffffffffffffffffffffff1602179055509050507f1a5d69aa63421231123cc938b6bd9d330f86f0558b55a89cb120e3052497bf558160036000848152602001908152602001600020600101600360008581526020019081526020016000206002015460036000868152602001908152602001600020600301600360008781526020019081526020016000206004016003600088815260200190815260200160002060050160405161045f96959493929190610cfa565b60405180910390a150565b600160009054906101000a900473ffffffffffffffffffffffffffffffffffffffff1673ffffffffffffffffffffffffffffffffffffffff163373ffffffffffffffffffffffffffffffffffffffff16146104c457600080fd5b6000808154809291906104d690610ec5565b91905055506040518060c0016040528060005481526020018581526020016000815260200184815260200183815260200182815250600360008054815260200190815260200160002060008201518160000155602082015181600101908051906020019061054592919061089c565b5060408201518160020155606082015181600301908051906020019061056c92919061089c565b50608082015181600401908051906020019061058992919061089c565b5060a08201518160050190805190602001906105a692919061089c565b5090505050505050565b60036020528060005260406000206000915090508060000154908060010180546105d990610e93565b80601f016020809104026020016040519081016040528092919081815260200182805461060590610e93565b80156106525780601f1061062757610100808354040283529160200191610652565b820191906000526020600020905b81548152906001019060200180831161063557829003601f168201915b50505050509080600201549080600301805461066d90610e93565b80601f016020809104026020016040519081016040528092919081815260200182805461069990610e93565b80156106e65780601f106106bb576101008083540402835291602001916106e6565b820191906000526020600020905b8154815290600101906020018083116106c957829003601f168201915b5050505050908060040180546106fb90610e93565b80601f016020809104026020016040519081016040528092919081815260200182805461072790610e93565b80156107745780601f1061074957610100808354040283529160200191610774565b820191906000526020600020905b81548152906001019060200180831161075757829003601f168201915b50505050509080600501805461078990610e93565b80601f01602080910402602001604051908101604052809291908181526020018280546107b590610e93565b80156108025780601f106107d757610100808354040283529160200191610802565b820191906000526020600020905b8154815290600101906020018083116107e557829003601f168201915b5050505050905086565b600160009054906101000a900473ffffffffffffffffffffffffffffffffffffffff1681565b60025481565b60046020528060005260406000206000915054906101000a900460ff1681565b60056020528060005260406000206000915090508060000160009054906101000a900473ffffffffffffffffffffffffffffffffffffffff16905081565b60005481565b8280546108a890610e93565b90600052602060002090601f0160209004810192826108ca5760008555610911565b82601f106108e357805160ff1916838001178555610911565b82800160010185558215610911579182015b828111156109105782518255916020019190600101906108f5565b5b50905061091e9190610922565b5090565b5b8082111561093b576000816000905550600101610923565b5090565b600061095261094d84610da8565b610d77565b90508281526020810184848401111561096a57600080fd5b610975848285610e51565b509392505050565b60008135905061098c81610fac565b92915050565b600082601f8301126109a357600080fd5b81356109b384826020860161093f565b91505092915050565b6000813590506109cb81610fc3565b92915050565b6000602082840312156109e357600080fd5b60006109f18482850161097d565b91505092915050565b60008060008060808587031215610a1057600080fd5b600085013567ffffffffffffffff811115610a2a57600080fd5b610a3687828801610992565b945050602085013567ffffffffffffffff811115610a5357600080fd5b610a5f87828801610992565b935050604085013567ffffffffffffffff811115610a7c57600080fd5b610a8887828801610992565b925050606085013567ffffffffffffffff811115610aa557600080fd5b610ab187828801610992565b91505092959194509250565b600060208284031215610acf57600080fd5b6000610add848285016109bc565b91505092915050565b610aef81610e09565b82525050565b610afe81610e1b565b82525050565b6000610b0f82610ded565b610b198185610df8565b9350610b29818560208601610e60565b610b3281610f9b565b840191505092915050565b60008154610b4a81610e93565b610b548186610df8565b94506001821660008114610b6f5760018114610b8157610bb4565b60ff1983168652602086019350610bb4565b610b8a85610dd8565b60005b83811015610bac57815481890152600182019150602081019050610b8d565b808801955050505b50505092915050565b6000610bca601683610df8565b91507f596f75206861766520616c726561647920766f746564000000000000000000006000830152602082019050919050565b610c0681610e47565b82525050565b6000602082019050610c216000830184610ae6565b92915050565b6000602082019050610c3c6000830184610af5565b92915050565b60006020820190508181036000830152610c5b81610bbd565b9050919050565b6000602082019050610c776000830184610bfd565b92915050565b600060c082019050610c926000830189610bfd565b8181036020830152610ca48188610b04565b9050610cb36040830187610bfd565b8181036060830152610cc58186610b04565b90508181036080830152610cd98185610b04565b905081810360a0830152610ced8184610b04565b9050979650505050505050565b600060c082019050610d0f6000830189610bfd565b8181036020830152610d218188610b3d565b9050610d306040830187610bfd565b8181036060830152610d428186610b3d565b90508181036080830152610d568185610b3d565b905081810360a0830152610d6a8184610b3d565b9050979650505050505050565b6000604051905081810181811067ffffffffffffffff82111715610d9e57610d9d610f6c565b5b8060405250919050565b600067ffffffffffffffff821115610dc357610dc2610f6c565b5b601f19601f8301169050602081019050919050565b60008190508160005260206000209050919050565b600081519050919050565b600082825260208201905092915050565b6000610e1482610e27565b9050919050565b60008115159050919050565b600073ffffffffffffffffffffffffffffffffffffffff82169050919050565b6000819050919050565b82818337600083830152505050565b60005b83811015610e7e578082015181840152602081019050610e63565b83811115610e8d576000848401525b50505050565b60006002820490506001821680610eab57607f821691505b60208210811415610ebf57610ebe610f3d565b5b50919050565b6000610ed082610e47565b91507fffffffffffffffffffffffffffffffffffffffffffffffffffffffffffffffff821415610f0357610f02610f0e565b5b600182019050919050565b7f4e487b7100000000000000000000000000000000000000000000000000000000600052601160045260246000fd5b7f4e487b7100000000000000000000000000000000000000000000000000000000600052602260045260246000fd5b7f4e487b7100000000000000000000000000000000000000000000000000000000600052604160045260246000fd5b6000601f19601f8301169050919050565b610fb581610e09565b8114610fc057600080fd5b50565b610fcc81610e47565b8114610fd757600080fd5b5056fea264697066735822122064e0a43b034c8208e06f26f4254b9eb05dea11139b175c78fe6a4a09480604eb64736f6c63430008000033",
  "immutableReferences": {},
  "source": "\r\n// SPDX-License-Identifier: MIT\r\npragma solidity ^0.8.0;\r\n\r\ncontract Vote{\r\n \r\nstruct Candidate{  //Politician\r\n    \r\n    \r\n    uint id;\r\n    string name;\r\n    uint votes;\r\n    string party;\r\n    string qualification;\r\n    string imageurl;\r\n\r\n    \r\n}\r\n\r\nstruct Voters{\r\n address vaddress;   \r\n}\r\n\r\n\r\nuint public candidatescount;\r\naddress public manager;\r\nuint public voterscount;\r\n\r\nmapping(uint=>Candidate) public candidates;\r\n\r\n\r\nmapping(address=>bool)public voted; //checks if person has already voted\r\nmapping(uint=>Voters) public voters;\r\n\r\n\r\n    event electionupdate(\r\n        uint id,\r\n        string name,\r\n        uint votes,\r\n        string party,\r\n        string qualification,\r\n        string imageurl\r\n        );\r\n        \r\n    constructor(){\r\n    manager=msg.sender;\r\n}\r\n\r\n  function addcandidate(string memory name,string memory party,string memory qualification,string memory imageurl) public{\r\n      \r\n  require(msg.sender==manager);\r\n    candidatescount++;\r\n    candidates[candidatescount]=Candidate(candidatescount,name,0,party,qualification,imageurl); //storing in map with id as count\r\n    \r\n   }\r\n\r\n\r\n\r\nfunction vote(uint _id) public\r\n{\r\n    require(msg.sender!=manager);\r\n    require(!voted[msg.sender],\"You have already voted\");\r\n    \r\n    candidates[_id].votes++;\r\n    \r\n    voted[msg.sender]=true;\r\n    voterscount++;\r\n    voters[voterscount]=Voters(msg.sender);\r\n    \r\n    emit electionupdate(_id,candidates[_id].name,candidates[_id].votes,candidates[_id].party,candidates[_id].qualification,candidates[_id].imageurl);\r\n    \r\n}\r\n\r\n\r\n    \r\n}\r\n\r\n",
  "sourcePath": "D:\\Recovery\\Votechain 2.0\\contracts\\Vote.sol",
  "compiler": {
    "name": "solc",
    "version": "0.8.0+commit.c7dfd78e.Emscripten.clang"
  },
  "schemaVersion": "3.4.2",
  "updatedAt": "2021-10-23T06:13:14.624Z",
  "devdoc": {
    "kind": "dev",
    "methods": {},
    "version": 1
  },
  "userdoc": {
    "kind": "user",
    "methods": {},
    "version": 1
  }
}